:020000040800F2
:10400000FFFF0120C9A80008837A0008857A00080C
:104010009D7B00089F7B0008A17B0008000000003A
:10402000000000000000000000000000F16E000829
:10403000A37B000800000000616F0008757A00088B
:104040000DA900080DA900080DA900080DA9000878
:104050000DA900080DA900080DA900080DA9000868
:104060000DA900080DA90008D5EC00086DBC0008DA
:104070000DA90008D5BC0008A1BC0008C9BC0008F7
:10408000A57B000861BC00080DA900080DA9000867
:104090000DA900080DA900080DA900080DA9000828
:1040A0000DA900080DA900080DA900080DA9000818
:1040B0000DA900080DA900080DA9000845BC0008BD
:1040C00051BC000879BC000885BC00080DA9000897
:1040D0000DA900080DA90008D9EC00080DA90008D9
:1040E000517A00080DA900080DA900080DA90008C3
:1040F0000DA900080DA900080DA9000895BC00082D
:104100000DA900080DA900080DA900080DA90008B7
:10411000DDEC00080DA900080DA900080DA9000894
:104120000DA900080DA900080DA900080DA9000897
:104130000DA900080DA900080DA900080DA9000887
:104140000DA900080DA900080DA900081DC9000847
:104150000DA900080DA90008E5EC0008E1EC000835
:10416000ADBC0008B9BC00080DA900080DA90008E5
:104170000DA900080DA900080DA900080DA9000847
:084180000DA900080DA90008BB
:1041A00081F0004102E000BF83F0004330B54FEAE8
:1041B00041044FEA430594EA050F08BF90EA020F55
:1041C0001FBF54EA000C55EA020C7FEA645C7FEAE8
:1041D000655C00F0E2804FEA5454D4EB5555B8BF0B
:1041E0006D420CDD2C4480EA020281EA030382EA7C
:1041F000000083EA010180EA020281EA0303362D0E
:1042000088BF30BD11F0004F4FEA01314FF4801CE0
:104210004CEA113102D0404261EB410113F0004FF2
:104220004FEA03334CEA133302D0524263EB4303A9
:1042300094EA050F00F0A780A4F10104D5F1200E47
:104240000DDB02FA0EFC22FA05F2801841F10001A2
:1042500003FA0EF2801843FA05F359410EE0A5F176
:1042600020050EF1200E012A03FA0EFC28BF4CF0A7
:10427000020C43FA05F3C01851EBE37101F000455D
:1042800007D54FF0000EDCF1000C7EEB00006EEB6A
:104290000101B1F5801F1BD3B1F5001F0CD34908F4
:1042A0005FEA30004FEA3C0C04F101044FEA44524B
:1042B00012F5800F80F09A80BCF1004F08BF5FEAD2
:1042C000500C50F1000041EB045141EA050130BDB2
:1042D0005FEA4C0C404141EB010111F4801FA4F155
:1042E0000104E9D191F0000F04BF01460020B1FAAA
:1042F00081F308BF2033A3F10B03B3F120020CDAE2
:104300000C3208DD02F1140CC2F10C0201FA0CF0BF
:1043100021FA02F10CE002F11402D8BFC2F1200C24
:1043200001FA02F120FA0CFCDCBF41EA0C019040DA
:10433000E41AA2BF01EB0451294330BD6FEA040423
:104340001F3C1CDA0C340EDC04F11404C4F120020E
:1043500020FA04F001FA02F340EA030021FA04F320
:1043600045EA030130BDC4F10C04C4F1200220FA77
:1043700002F001FA04F340EA0300294630BD21FAB5
:1043800004F0294630BD94F0000F83F4801306BF7B
:1043900081F480110134013D4EE77FEA645C18BF6F
:1043A0007FEA655C29D094EA050F08BF90EA020F06
:1043B00005D054EA000C04BF1946104630BD91EAFE
:1043C000030F1EBF0021002030BD5FEA545C05D101
:1043D0004000494128BF41F0004130BD14F5800440
:1043E0003CBF01F5801130BD01F0004545F0FE41B4
:1043F00041F470014FF0000030BD7FEA645C1ABFE9
:10440000194610467FEA655C1CBF0B46024650EA1F
:10441000013406BF52EA033591EA030F41F400214B
:1044200030BD00BF90F0000F04BF0021704730B5D1
:104430004FF4806404F132044FF000054FF00001A6
:1044400050E700BF90F0000F04BF0021704730B567
:104450004FF4806404F1320410F0004548BF40423C
:104460004FF000013EE700BF42004FEAE2014FEA91
:1044700031014FEA02701FBF12F07F4393F07F4F6C
:1044800081F06051704792F0000F14BF93F07F4F9E
:10449000704730B54FF4607401F0004521F00041E1
:1044A00020E700BF50EA010208BF704730B54FF067
:1044B00000050AE050EA010208BF704730B511F06C
:1044C000004502D5404261EB41014FF4806404F1A4
:1044D00032045FEA915C3FF4DCAE4FF003025FEA26
:1044E000DC0C18BF03325FEADC0C18BF033202EBAE
:1044F000DC02C2F1200300FA03FC20FA02F001FA08
:1045000003FE40EA0E0021FA02F11444C1E600BFA6
:1045100070B54FF0FF0C4CF4E06C1CEA11541DBF59
:104520001CEA135594EA0C0F95EA0C0F00F0DEF824
:104530002C4481EA030621EA4C5123EA4C5350EA09
:10454000013518BF52EA033541F4801143F480135A
:1045500038D0A0FB02CE4FF00005E1FB02E506F0EB
:104560000042E0FB03E54FF00006E1FB03569CF040
:10457000000F18BF4EF0010EA4F1FF04B6F5007F46
:1045800064F5407404D25FEA4E0E6D4146EB0606B8
:1045900042EAC62141EA55514FEAC52040EA5E5041
:1045A0004FEACE2EB4F1FD0C88BFBCF5E06F1ED8EB
:1045B000BEF1004F08BF5FEA500E50F1000041EB22
:1045C000045170BD06F0004646EA010140EA0200CF
:1045D00081EA0301B4EB5C04C2BFD4EB0C0541EAF1
:1045E000045170BD41F480114FF0000E013C00F306
:1045F000AB8014F1360FDEBF002001F0004170BD2A
:10460000C4F10004203C35DA0C341BDC04F1140442
:10461000C4F1200500FA05F320FA04F001FA05F2CE
:1046200040EA020001F0004221F0004110EBD3709B
:1046300021FA04F642EB06015EEA430E08BF20EAC7
:10464000D37070BDC4F10C04C4F1200500FA04F36A
:1046500020FA05F001FA04F240EA020001F00041FC
:1046600010EBD37041F100015EEA430E08BF20EA6F
:10467000D37070BDC4F1200500FA05F24EEA020EB7
:1046800020FA04F301FA05F243EA020321FA04F0E6
:1046900001F0004121FA04F220EA020000EBD3709D
:1046A0005EEA430E08BF20EAD37070BD94F0000F9D
:1046B0000FD101F00046400041EB010111F4801FD1
:1046C00008BF013CF7D041EA060195F0000F18BF82
:1046D000704703F00046520043EB030313F4801FBE
:1046E00008BF013DF7D043EA0603704794EA0C0F78
:1046F0000CEA135518BF95EA0C0F0CD050EA41068E
:1047000018BF52EA4306D1D181EA030101F000410A
:104710004FF0000070BD50EA410606BF1046194632
:1047200052EA430619D094EA0C0F02D150EA01363E
:1047300013D195EA0C0F05D152EA03361CBF10467F
:1047400019460AD181EA030101F0004141F0FE411E
:1047500041F470014FF0000070BD41F0FE4141F4A2
:10476000780170BD70B54FF0FF0C4CF4E06C1CEAA2
:1047700011541DBF1CEA135594EA0C0F95EA0C0F57
:1047800000F0A7F8A4EB050481EA030E52EA033512
:104790004FEA013100F088804FEA03334FF0805533
:1047A00045EA131343EA12634FEA022245EA111560
:1047B00045EA10654FEA00260EF000419D4208BF11
:1047C000964244F1FD0404F5407402D25B084FEABE
:1047D0003202B61A65EB03055B084FEA32024FF46A
:1047E00080104FF4002CB6EB020E75EB030E22BFC7
:1047F000B61A754640EA0C005B084FEA3202B6EB87
:10480000020E75EB030E22BFB61A754640EA5C0035
:104810005B084FEA3202B6EB020E75EB030E22BFC5
:10482000B61A754640EA9C005B084FEA3202B6EBC6
:10483000020E75EB030E22BFB61A754640EADC0085
:1048400055EA060E18D04FEA051545EA16754FEAE7
:1048500006164FEAC30343EA52734FEAC2025FEA05
:104860001C1CC0D111F4801F0BD141EA00014FF094
:1048700000004FF0004CB6E711F4801F04BF014365
:104880000020B4F1FD0C88BFBCF5E06F3FF6AFAE81
:10489000B5EB030C04BFB6EB020C5FEA500C50F111
:1048A000000041EB045170BD0EF0004E4EEA113194
:1048B00014EB5C04C2BFD4EB0C0541EA045170BD9B
:1048C00041F480114FF0000E013C90E645EA060EDF
:1048D0008DE60CEA135594EA0C0F08BF95EA0C0F0D
:1048E0003FF43BAF94EA0C0F0AD150EA01347FF455
:1048F00034AF95EA0C0F7FF425AF104619462CE72C
:1049000095EA0C0F06D152EA03353FF4FDAE10468E
:10491000194622E750EA410618BF52EA43067FF4DF
:10492000C5AE50EA41047FF40DAF52EA43057FF46F
:10493000EBAE12E74FF0FF3C06E000BF4FF0010C7A
:1049400002E000BF4FF0010C4DF804CD4FEA410CDE
:104950007FEA6C5C4FEA430C18BF7FEA6C5C1BD0AB
:1049600001B050EA410C0CBF52EA430C91EA030F2C
:1049700002BF90EA020F0020704710F1000F91EA89
:10498000030F58BF994208BF90422CBFD8176FEA57
:10499000E37040F0010070474FEA410C7FEA6C5C25
:1049A00002D150EA013C07D14FEA430C7FEA6C5C2C
:1049B000D6D152EA033CD3D05DF8040B704700BF58
:1049C0008446104662468C461946634600E000BFA6
:1049D00001B5FFF7B7FF002848BF10F1000F01BD78
:1049E0004DF808EDFFF7F4FF0CBF012000205DF843
:1049F00008FB00BF4DF808EDFFF7EAFF34BF0120C8
:104A000000205DF808FB00BF4DF808EDFFF7E0FF60
:104A100094BF012000205DF808FB00BF4DF808EDB1
:104A2000FFF7CEFF94BF012000205DF808FB00BF18
:104A30004DF808EDFFF7C4FF34BF012000205DF8FA
:104A400008FB00BF4FEA410212F5001215D211D542
:104A50006FF47873B3EB625212D94FEAC12343F07B
:104A6000004343EA505311F0004F23FA02F018BFFD
:104A7000404270474FF00000704750EA013005D1C6
:104A800011F0004008BF6FF0004070474FF0000089
:104A9000704700BF4FEA4102B2F1E04324BFB3F5D3
:104AA000001CDCF1FE5C0DD901F0004C4FEAC002A5
:104AB0004CEA5070B2F1004F40EB830008BF20F089
:104AC0000100704711F0804F21D113F13872BCBF43
:104AD00001F00040704741F480114FEA5252C2F198
:104AE0001802C2F1200C10FA0CF320FA02F018BFE1
:104AF00040F001004FEAC1234FEAD32303FA0CFC34
:104B000040EA0C0023FA02F34FEA4303CCE77FEAC2
:104B1000625307D150EA01331EBF4FF0FE4040F40C
:104B20004000704701F0004040F0FE4040F40000BB
:104B3000704700BF80F0004002E000BF81F00041FC
:104B400042001FBF5FEA410392EA030F7FEA226C33
:104B50007FEA236C6AD04FEA1262D2EB1363C1BFC3
:104B6000D218414048404140B8BF5B42192B88BF32
:104B7000704710F0004F40F4000020F07F4018BF55
:104B8000404211F0004F41F4000121F07F4118BF75
:104B9000494292EA030F3FD0A2F1010241FA03FC1D
:104BA00010EB0C00C3F1200301FA03F100F0004305
:104BB00002D5494260EB4000B0F5000F13D3B0F1CD
:104BC000807F06D340084FEA310102F10102FE2A3C
:104BD00051D2B1F1004F40EBC25008BF20F00100AC
:104BE00040EA03007047490040EB000010F4000F5A
:104BF000A2F10102EDD1B0FA80FCACF1080CB2EBED
:104C00000C0200FA0CF0AABF00EBC250524218434B
:104C1000BCBFD0401843704792F0000F81F40001F0
:104C200006BF80F400000132013BB5E74FEA4103C3
:104C30007FEA226C18BF7FEA236C21D092EA030F2F
:104C400004D092F0000F08BF0846704790EA010FA9
:104C50001CBF0020704712F07F4F04D1400028BFD6
:104C600040F00040704712F100723CBF00F50000B8
:104C7000704700F0004343F0FE4040F400007047EE
:104C80007FEA226216BF08467FEA2363014642029A
:104C900006BF5FEA412390EA010F40F480007047AD
:104CA0004FF0000304E000BF10F0004348BF404253
:104CB0005FEA000C08BF704743F0964301464FF08F
:104CC00000001CE050EA010208BF70474FF00003EB
:104CD0000AE000BF50EA010208BF704711F000432C
:104CE00002D5404261EB41015FEA010C02BF8446FC
:104CF0000146002043F0B64308BFA3F18053A3F55B
:104D00000003BCFA8CF2083AA3EBC25310DB01FAA1
:104D100002FC634400FA02FCC2F12002BCF1004F25
:104D200020FA02F243EB020008BF20F001007047B6
:104D300002F1200201FA02FCC2F1200250EA4C000A
:104D400021FA02F243EB020008BF20EADC70704750
:104D50004FF0FF0C1CEAD0521EBF1CEAD15392EA5E
:104D60000C0F93EA0C0F6FD01A4480EA010C40023A
:104D700018BF5FEA41211ED04FF0006343EA501094
:104D800043EA5111A0FB01310CF00040B1F5000FD6
:104D90003EBF490041EAD3715B0040EA010062F185
:104DA0007F02FD2A1DD8B3F1004F40EBC25008BF6F
:104DB00020F00100704790F0000F0CF0004C08BF8D
:104DC00049024CEA502040EA51207F3AC2BFD2F15A
:104DD000FF0340EAC250704740F400004FF0000368
:104DE000013A5DDC12F1190FDCBF00F000407047A2
:104DF000C2F10002410021FA02F1C2F1200200FAE0
:104E000002FC5FEA310040F1000053EA4C0308BFA6
:104E100020EADC70704792F0000F00F0004C02BFF7
:104E2000400010F4000F013AF9D040EA0C0093F072
:104E3000000F01F0004C02BF490011F4000F013BCC
:104E4000F9D041EA0C018FE70CEAD15392EA0C0F3A
:104E500018BF93EA0C0F0AD030F0004C18BF31F0A5
:104E6000004CD8D180EA010000F00040704790F07B
:104E7000000F17BF90F0004F084691F0000F91F01F
:104E8000004F14D092EA0C0F01D142020FD193EAE5
:104E90000C0F03D14B0218BF084608D180EA01006D
:104EA00000F0004040F0FE4040F40000704740F049
:104EB000FE4040F4400070474FF0FF0C1CEAD05217
:104EC0001EBF1CEAD15392EA0C0F93EA0C0F69D073
:104ED000A2EB030280EA010C49024FEA402037D0DE
:104EE0004FF0805343EA111143EA10130CF00040D5
:104EF0008B4238BF5B0042F17D024FF4000C8B42C5
:104F000024BF5B1A40EA0C00B3EB510F24BFA3EBA4
:104F1000510340EA5C00B3EB910F24BFA3EB910374
:104F200040EA9C00B3EBD10F24BFA3EBD10340EACE
:104F3000DC001B0118BF5FEA1C1CE0D1FD2A3FF614
:104F400050AF8B4240EBC25008BF20F001007047C9
:104F50000CF0004C4CEA50207F32C2BFD2F1FF036C
:104F600040EAC250704740F400004FF00003013A9D
:104F700037E792F0000F00F0004C02BF400010F441
:104F8000000F013AF9D040EA0C0093F0000F01F055
:104F9000004C02BF490011F4000F013BF9D041EA77
:104FA0000C0195E70CEAD15392EA0C0F08D14202AA
:104FB0007FF47DAF93EA0C0F7FF470AF084676E77D
:104FC00093EA0C0F04D14B023FF44CAF08466EE756
:104FD00030F0004C18BF31F0004CCAD130F0004224
:104FE0007FF45CAF31F000437FF43CAF5FE700BF7C
:104FF0004FF0FF3C06E000BF4FF0010C02E000BFA5
:105000004FF0010C4DF804CD4FEA40024FEA410346
:105010007FEA226C18BF7FEA236C11D001B052EAFC
:10502000530C18BF90EA010F58BFB2EB030088BFC2
:10503000C81738BF6FEAE17018BF40F00100704731
:105040007FEA226C02D15FEA402C05D17FEA236C13
:10505000E4D15FEA412CE1D05DF8040B704700BF5A
:10506000844608466146FFE70FB5FFF7C9FF0028F1
:1050700048BF10F1000F0FBD4DF808EDFFF7F4FF2A
:105080000CBF012000205DF808FB00BF4DF808EDC3
:10509000FFF7EAFF34BF012000205DF808FB00BFE6
:1050A0004DF808EDFFF7E0FF94BF012000205DF808
:1050B00008FB00BF4DF808EDFFF7D2FF94BF0120B9
:1050C00000205DF808FB00BF4DF808EDFFF7C8FFB2
:1050D00034BF012000205DF808FB00BF4FEA40020A
:1050E000B2F1FE4F0FD34FF09E03B3EB12620DD916
:1050F0004FEA002343F0004310F0004F23FA02F080
:1051000018BF404270474FF00000704712F1610F26
:1051100001D1420205D110F0004008BF6FF00040FD
:1051200070474FF0000070477BB972B90029BEBFCD
:1051300000204FF0004106E008BF00281CBF6FF0C0
:1051400000414FF0FF3000F03BB882B0EC462DE953
:10515000005000F005F8DDF804E002B00CBC704728
:105160002DE9F041069C154606460F46984600F08C
:1051700029F805FB01F300FB0838A5FB0023B21A50
:10518000434467EB0303C4E90023BDE8F08100BF9B
:105190002DE9F041069C904606460F461D4600F05C
:1051A0005FF900FB05F5A0FB082308FB0155B21AC7
:1051B0002B4467EB0303C4E90023BDE8F08100BF83
:1051C000704700BF00292DE9F043C0F2A6800026F9
:1051D000002BC0F29C80884694469E4615460446A5
:1051E0000F46002B3DD18A4259D9B2FA82F33BB126
:1051F000C3F120029F4020FA02F29D4017439C40D9
:10520000290C220CB7FBF1FEA8B201FB1E7742EA83
:10521000074700FB0EF3BB420AD97F190EF1FF329C
:1052200080F00581BB4240F20281AEF1020E2F44B4
:10523000FF1AA4B2B7FBF1F301FB137744EA074767
:1052400000FB03F0B84208D97F1903F1FF3280F068
:10525000F080B84240F2ED80023B43EA0E43002268
:1052600003E08B420FD900221346341C18BF0124DF
:1052700060424FF0000565EB450158405140001970
:105280006941BDE8F083B3FA83F2002A40F08680DA
:105290008B4202D3844500F2DB800123E5E712B99B
:1052A0000123B3FBF2F5B5FA85F000283BD1781B5A
:1052B0004FEA154E1FFA85FC0122B0FBFEF8210CC7
:1052C0000EFB180741EA07470CFB08F3BB4207D95E
:1052D0007F1908F1FF3102D2BB4200F2BD8088463F
:1052E000FF1AA4B2B7FBFEF30EFB137744EA07479D
:1052F0000CFB03FCBC4507D97F1903F1FF3102D237
:10530000BC4500F2A7800B4643EA0843ADE7524292
:105310006FEA060663EB43035DE7404261EB410140
:105320004FF0FF3654E7C0F1200224FA02F107FAE9
:1053300000F385404FEA154ED7401943B7FBFEF204
:105340000B0C0EFB12771FFA85FC43EA07430CFB9C
:1053500002F79F4204FA00F407D95B1902F1FF300B
:1053600074D29F4272D9023A2B44DF1B89B2B7FB39
:10537000FEF80EFB187341EA03430CFB08F79F424B
:1053800008D95B1908F1FF315CD29F425AD9A8F1C4
:1053900002082B44D81B48EA02428EE7C2F12003E0
:1053A0002CFA03F10EFA02FE20FA03F741EA0E0E80
:1053B00008FA02F028FA03F14FEA1E453843B1FB20
:1053C000F5F8030C05FB18111FFA8EF743EA0141AB
:1053D00007FB08F38B420CFA02FC09D911EB0E0112
:1053E00008F1FF3930D28B422ED9A8F1020871445E
:1053F000C91A80B2B1FBF5F305FB131140EA014174
:1054000007FB03F78F4208D911EB0E0103F1FF30C0
:1054100016D28F4214D9023B714443EA0843C91B98
:10542000A3FB0C89494509D305D000221DE7964608
:10543000FEE6134611E794404445F6D2013BF4E7FB
:105440000346EAE78846A5E7C846D1E702468CE767
:1054500013460AE7023B57E7A8F102082F443FE74B
:105460002DE9F041002B44D18A42154604464FD91C
:10547000B2FA82F70E464FB1C7F12003B94020FAC5
:1054800003F602FA07F50E4300FA07F44FEA154E49
:10549000230CB6FBFEF0AFB20EFB106143EA0143F2
:1054A00007FB00F1994209D95B1900F1FF3280F046
:1054B000EC80994240F2E98002382B445A1AA4B297
:1054C000B2FBFEF30EFB132244EA024207FB03F792
:1054D000974208D9521903F1FF3180F0D8809742E2
:1054E00040F2D580023B43EA004000263146BDE849
:1054F000F0818B4247D8B3FA83F6002E48D18B4215
:1055000002D3824200F2CD8001203146BDE8F08115
:1055100012B90125B5FBF2F5B5FA85F8B8F1000F1F
:1055200077D14A1B4FEA154EAFB20126B2FBFEF00F
:10553000230C0EFB102143EA014107FB00F38B42D1
:1055400007D9491900F1FF3202D28B4200F2BA802A
:105550001046C91AA4B2B1FBFEF30EFB131144EAC4
:10556000014407FB03F7A74208D9641903F1FF328E
:1055700080F08F80A74240F28C80023B43EA0040DB
:105580003146BDE8F081002630463146BDE8F08165
:10559000C6F1200422FA04F5B3402B4320FA04FCA0
:1055A00001FA06F721FA04F54FEA134E4CEA070711
:1055B000B5FBFEF8390C0EFB18551FFA83FC41EAC7
:1055C00005450CFB08F1A94202FA06F204D9ED18D0
:1055D00008F1FF3467D3A0466D1ABFB2B5FBFEF4E5
:1055E0000EFB145547EA05410CFB04FC8C4504D91D
:1055F000C91804F1FF355CD32C4644EA0844CCEBCF
:105600000101A4FB0223994248D344D0204600263E
:105610006CE7C8F1200401FA08F305FA08F520FA4E
:1056200004F7E1404FEA154E1F43B1FBFEF63A0C7A
:105630000EFB16111FFA85FC42EA01430CFB06F231
:105640009A4200FA08F407D95B1906F1FF3137D204
:105650009A4235D9023E2B449B1ABFB2B3FBFEF0EF
:105660000EFB103347EA03430CFB00F1994207D9C4
:105670005B1900F1FF3221D299421FD902382B4425
:105680005A1A40EA0646674650E7104616E70B46A8
:1056900029E7134672E7B0409042B7D2601E002659
:1056A00024E7304622E7A94295D9A8F102081D4413
:1056B00092E78C45A0D9023C19449EE71046DFE7EB
:1056C0000E46C9E70238294443E700BF844641EA51
:1056D000000313F003036DD1403A41D351F8043B6A
:1056E00040F8043B51F8043B40F8043B51F8043BBC
:1056F00040F8043B51F8043B40F8043B51F8043BAC
:1057000040F8043B51F8043B40F8043B51F8043B9B
:1057100040F8043B51F8043B40F8043B51F8043B8B
:1057200040F8043B51F8043B40F8043B51F8043B7B
:1057300040F8043B51F8043B40F8043B51F8043B6B
:1057400040F8043B51F8043B40F8043B51F8043B5B
:1057500040F8043B51F8043B40F8043B403ABDD2CA
:10576000303211D351F8043B40F8043B51F8043B6C
:1057700040F8043B51F8043B40F8043B51F8043B2B
:1057800040F8043B103AEDD20C3205D351F8043BFB
:1057900040F8043B043AF9D2043208D0D2071CBFC7
:1057A00011F8013B00F8013B01D30B8803806046F0
:1057B000704700BF082A13D38B078DD010F0030366
:1057C0008AD0C3F10403D21ADB071CBF11F8013BD6
:1057D00000F8013B80D331F8023B20F8023B7BE725
:1057E000043AD9D3013A11F8013B00F8013BF9D250
:1057F0000B7803704B7843708B78837060467047EA
:10580000A2EB0300704700BF02780B78012A28BF83
:105810009A42F5D16DE9044540EA0104CDE90267F9
:105820006FF0000C4FEA447212B380EA010414F0E6
:10583000070F6AD100F0070420F0070004F0030509
:1058400021F007014FEAC505F0E8042314F0040F26
:10585000F1E804670CFA05F462EA040266EA040659
:105860000AD063EA0403624667EA0407664603E077
:10587000F0E80423F1E8046782FA4CF582EA0604B2
:10588000A4FA8CF46CBB83FA4CF583EA0705A5FAFD
:105890008CF595B950E9022351E9026782FA4CF57B
:1058A00082EA0604A4FA8CF483FA4CF583EA07052D
:1058B000A5FA8CF52543DBD09CB92DBAB5FA85F451
:1058C00024F0070427FA04F1DDE9026723FA04F360
:1058D00003F0FF0001F0FF01FDE80445A0EB01002B
:1058E000704724BAB4FA84F424F0070426FA04F1C9
:1058F000DDE9026722FA04F202F0FF0001F0FF0185
:10590000FDE80445A0EB0100704714F0030F3CD103
:1059100010F0030428D150F8082B51F8083B82FA04
:105920004CF582EA0305A5FA8CF55DB950F8042C14
:1059300051F8043C82FA4CF582EA0305A5FA8CF58D
:10594000002DE8D02DBAB5FA85F424F0070423FA27
:1059500004F122FA04F202F0FF0001F0FF01FDE879
:105960000445A0EB010070474FEAC40420F0030097
:1059700050F8082B21F0030151F8083B0CFA04F40D
:1059800062EA040263EA0403C9E710F003041AD0D0
:10599000A1EB040120F00300E40750F8042B06D02B
:1059A0000FD28B785FFAA2F4E41A06D12BB1CB7830
:1059B0005FFAB2F4E41A00D11BB920465DF8104B2F
:1059C000704701F1040150F8042BCC0721F00301CA
:1059D00051F8043B48D824D222F07F4482FA4CF597
:1059E00094EA1325A5FA8CF50AD165B951F8043B60
:1059F00084EA0204B4EB036F0ED150F8042BEBE7FA
:105A00004FEA132355E035F07F454DD10878FDE886
:105A10000445C0F1000070474FEA126203F0FF0333
:105A200047E002EA1C4482FA4CF594EA1345A5FAD1
:105A30008CF50AD165B951F8043B84EA0204B4EB51
:105A4000034F0CD150F8042BEBE74FEA134330E03F
:105A500015EA1C4528D10B884FEA124229E04FEA8B
:105A6000124203EA1C4324E002F0FF0482FA4CF5E0
:105A700094EA1365A5FA8CF50AD165B951F8043B8F
:105A800084EA0204B4EB032F09D150F8042BEBE7AE
:105A90004FEA13630DE015F0FF0F05D10B684FEAD5
:105AA000122223F07F4304E04FF00000FDE804459C
:105AB000704712BA1BBA82FA4CF482EA0304A4FAC1
:105AC0008CF5B5FA85F402FA04F203FA04F34FEA0E
:105AD0001260FDE80445A0EB13607047AFF300804F
:105AE00000F108034FF0FF3282604360C36003613E
:105AF00000230360704700230361704743685A68BE
:105B00004A6042688A605A689160596041600861E1
:105B100003680133036070470A68531C10B501D154
:105B2000036907E000F108035C682468944201D827
:105B30005B68F9E75A684A6091608B605960086158
:105B400003680133036010BD436882689A6083680C
:105B500042685A6003695A68824204BF82685A6088
:105B6000002202611A68013A1A601868704708B585
:105B700002F0E4FBFCE7000010B50E4B1A68506021
:105B80000D4A12689042044607D20C4A1068196800
:105B9000BDE810400431FFF7BFBF094A106819681B
:105BA0000431FFF7B9FF074B1A68944238BF1C60F5
:105BB00010BD00BF50050020680500206C050020C6
:105BC00074040020000000200B4B1B6800230B4ACC
:105BD000126893420AD20A4A52F82320126B013A01
:105BE00012F8011FBE29FBD00133F0E7054B1868FE
:105BF000054B1B68184470475005002080050020A5
:105C0000100500204C050020780500202DE9F74FF5
:105C10000C9EDDF838B08A4615469946804628B96C
:105C20006B486C4940F2272204F0D2FC042E05D9BF
:105C3000694868494FF40A7204F0CAFC4C2001F02C
:105C4000CBF8664A13684C3313600446D0B1AF00FA
:105C5000BBF1000F03D1384601F0BEF8834660491E
:105C6000C4F830B00B683B440B60BBF1000F04D1AB
:105C7000204601F00BF95C4604E05846BE213A4646
:105C80000DF096FF574A13682B44136044B95648E9
:105C900050494FF40C7204F09BFC4FF0FF3093E03E
:105CA00005F1804BAD00013D2564504D236B296803
:105CB0004F4A0BF1FF3B03EB8B0342F8214004F109
:105CC000340051460A2223F0070B0EF04BF8042E45
:105CD00033464FF0000728BF042304F1040AE362AF
:105CE0006364504684F83D700193FFF704FF04F1AC
:105CF0001800FFF700FF019B2461C3F10503A361B6
:105D00006462A764584641464A4601F0E5F84307F5
:105D1000206005D037482F4940F2722204F058FC29
:105D20000D9B03B11C6001F003F92B68DFF8EC80D8
:105D300001332B60304D2F68EFB92C4B2C601B6862
:105D4000012B20D108EB07001437FFF7C9FE642FA1
:105D5000F8D1DFF8CC90294F4846FFF7C1FE38460E
:105D6000FFF7BEFE2648FFF7BBFE264BC3F80090A8
:105D7000254B1F6007E0254B1B6823B92B68DB6AA6
:105D8000B34298BF2C60224AE36A11688B422149D2
:105D900088BF13600A6801320A601F4A1168142024
:105DA0008B4200FB0380514688BF1360FFF7A6FEBD
:105DB00001F0CCF8154B1B682BB12B68DB6AB342A2
:105DC00001D201F0A5F8012003B0BDE8F08F00BFBB
:105DD000CC3D0108D73D0108EC3D01084C050020F1
:105DE00078050020A80400202F3E0108800500202F
:105DF00010050020383E01085005002094040020C2
:105E000054050020740400206C0500207804002054
:105E1000840500207405002070050020AC040020DB
:105E20008004002030B585B00024009401940294D1
:105E300003941248124964222346FFF7E7FE012823
:105E400005460FD100F036FE012805460AD101F0C3
:105E500067F80C4B1D600C4B1C6005B0BDE8304072
:105E600001F0B8B845B90948094940F24A5205B0AD
:105E7000BDE8304004F0ACBB05B030BD6F5B00083E
:105E80009C3E01087804002068050020A13E01081E
:105E9000D73D0108024A136801331360704700BF01
:105EA0007C04002010B501F043F8034B1C6801F09E
:105EB0004DF8204610BD00BF68050020F8B52E4BF8
:105EC0001B68002B52D12D4B2D4D1A6801321A60E0
:105ED0001A681E46F2B92B4C23681B682BB12A485E
:105EE0002A4940F2B66204F073FB294B2268196814
:105EF00021601A60274A13680133136023681B6806
:105F000013B94FF0FF3304E01E4B1B68DB68DB68FE
:105F10005B682B6032682B689A422BD3194B1A6846
:105F2000126812B94FF0FF3306E01B68DB68DC68CB
:105F3000326863689A4201D22B60F8BD271D38464B
:105F4000FFF702FEA36A1BB104F11800FFF7FCFD86
:105F5000114AE36A11688B4288BF13600F4A14200C
:105F600000FB03203946FFF7C9FDD7E70C4A136849
:105F700001331360F8BD00BF7C04002068050020D9
:105F80000000002074040020A93E0108D73D01084C
:105F90006C0500207004002070050020AC04002077
:105FA0006C04002070B52B4C23682BB92A482B4970
:105FB00040F2855204F00CFB00F0BAFF2368013B6D
:105FC000236024680CB1002440E0254B1B68002BA3
:105FD000F9D0244B1A68F2B1DB68DD682E1D05F19B
:105FE0001800FFF7B1FD3046FFF7AEFD1E4AEB6A21
:105FF00011688B4288BF13601C4A142000FB0320E9
:106000003146FFF77BFD1A4BEA6A1B68DB6A9A424E
:1060100028BF0124DDE7174B1A681D4642B12B68E3
:10602000144C3BB1FFF74AFF2368013B2360F6E7BE
:10603000012C06D1104B00221A60012400F068FFE9
:1060400004E00D4B1B68012BBDD1F3E700F07EFF90
:10605000204670BD7C040020D43E0108D73D0108D5
:10606000800500205405002070050020AC040020AD
:10607000500500206C0400207C05002038B50C463B
:10608000054628B91A481B494FF4447204F0A0FA97
:106090002CB91948174940F2113204F099FAFFF768
:1060A000F9FE164A2B68116899421C4402D29C42A0
:1060B00008D201E09C4207D313689C4294BF00239E
:1060C000012302E0002300E001232C603BB10C4BD4
:1060D00018680430FFF738FD2046FFF74DFDFFF745
:1060E00061FF18B9BDE8384000F012BF38BD00BFED
:1060F000E93E0108D73D0108FC3E01086805002083
:106100005005002010B5044618B9BDE8104000F055
:10611000FFBEFFF7BFFE084B1B681C44074B186807
:106120000430FFF711FD2046FFF726FDFFF73AFF89
:106130000028EAD010BD00BF6805002050050020EF
:1061400038B50D46044608B9044B1C6800F0F0FE53
:10615000A564BDE8384000F0F9BE00BF500500203E
:1061600038B51D4B1B681BB11C4B01221A6038BD92
:106170001B4C2268236812681B6B9A4210D8206857
:106180002168343101F0A0FF0AE02B682BB91548D3
:10619000154940F2667204F01BFA2B68013B2B6034
:1061A000124D134A29681423594351580029ECD041
:1061B00029684B43D018083345686D68456013441F
:1061C0009D4204BF6B684360142303FB01225368A4
:1061D000DB68236038BD00BF7C0400207C05002004
:1061E00050050020143F0108D73D0108700500202C
:1061F000AC04002070B50E46054628B90B480C4982
:1062000040F2717204F0E4F90A4C21682846183112
:10621000FFF782FC20680430FFF796FC064B1868F5
:106220003044BDE87040FFF7A7BC00BF273F01081E
:10623000D73D0108500500206805002070B50E46C6
:10624000054628B90B480C4940F2A77204F0C0F982
:106250000A4C216828461831FFF750FC20680430AA
:10626000FFF772FC064B18683044BDE87040FFF73A
:1062700083BC00BF273F0108D73D0108500500201F
:106280006805002038B5C368DC682CB91448154986
:1062900040F2DD7204F09CF904F118052846FFF77E
:1062A00053FC114B1B6873B9251D2846FFF74CFCA6
:1062B0000E4AE36A11688B4288BF13600C4A1420AF
:1062C00000FB032000E00B482946FFF717FC0A4BB0
:1062D000E06A1B68DB6A984234BF0020012038BDA9
:1062E000333F0108D73D01087C04002070050020E1
:1062F000AC040020540500205005002010B50446D1
:1063000028B90648064940F2FF7204F061F9054BCE
:106310001B682360044B1B68636010BD423F01088B
:10632000D73D0108700400206805002038B50D46EF
:10633000044628B91648174940F6090204F048F9FE
:106340002DB91548134940F60A0204F041F900F04E
:10635000EFFD124B61681A6823689A42104B02D015
:106360001A688A420ED21A682B68521A9A4209D2C7
:106370000B4A1268521A9B1A20462B60FFF7BEFF89
:10638000002400E0012400F0E1FD204638BD00BFFC
:10639000423F0108D73D01084C3F0108700400202E
:1063A00068050020014B01221A6070477C0500201F
:1063B000014B1868704700BF50050020044B186857
:1063C00028B1044B1B68002B0CBF01200220704732
:1063D000780400207C040020F8B5044648B3154D2D
:1063E000C36A2A68D26A934223D22A68D26AC2F167
:1063F000050282611048142202FB030362699A427B
:10640000064613D1271D3846FFF79EFB2B680B4A23
:10641000DB6A1168E3628B4288BF1360142000FBC3
:1064200003603946BDE8F840FFF768BB2B68DB6ABC
:10643000E362F8BD50050020AC0400207005002088
:1064400038B50446D0B1C26A436C9A4216D0051DD5
:106450002846FFF779FB636CE362C3F10502A26192
:10646000074A11688B4288BF1360064A142000FB5C
:1064700003202946BDE83840FFF740BB38BD00BFC8
:1064800070050020AC04002038B51346026C0446A9
:1064900032B9056805BB4068FFF7D2FF65601BE0B5
:1064A00063B98068FFF712F9A268236C134462682D
:1064B000A360934210D32368A3600DE0C068FFF788
:1064C00005F9236CE26821685B421A448A42E26063
:1064D0003EBF62689B18E360A36B0133A36338BDC2
:1064E00030B5056803466DB1C468026C1444C460DD
:1064F0004068844228BFDD600846BDE83040D96866
:10650000FFF7E4B830BD10B5044600F011FDA36CF0
:10651000002B0CDD636A53B104F12400FFF7B2FED7
:1065200008B1FFF73FFFA36C013BA364EFE74FF017
:10653000FF33A36400F00AFD00F0FAFC636C002B4B
:106540000CDD236953B104F11000FFF79BFE08B185
:10655000FFF728FF636C013B6364EFE74FF0FF3305
:106560006364BDE8104000F0F1BC000038B50D4692
:10657000044620B917481849F12204F029F800F020
:10658000D7FC216CE36B2268A2604B43D0185B1AE6
:1065900013446060E36000204FF0FF33A063636446
:1065A000A36455B9236983B104F11000FFF76AFEB3
:1065B00001280AD100F0ACFC07E004F11000FFF75D
:1065C0008FFA04F12400FFF78BFA00F0BFFC0120E2
:1065D00038BD00BF5A3F0108623F010870B50E4642
:1065E0000546A8B14C2000F0F7FB044680B106FB3D
:1065F00005F0013000F0F0FB206030B1E563266467
:1066000020460121FFF7B2FF09E0204600F03EFCE2
:10661000044805494FF4A77203F0DAFF002420462E
:1066200070BD00BFA13E0108623F01082DE9FF4196
:106630000E4601929846044628B93948394940F235
:10664000312203F0C5FF16B9236C002B5ED1002761
:1066500000F06EFCA26BE36B9A4212D220463146E8
:106660004246FFF711FF636A3BB104F12400FFF7D4
:1066700009FE012801D100F04BFC00F067FC01206D
:106680004BE0019D15B900F061FC3DE017B902A88F
:10669000FFF734FE00F05AFCFFF7FCFB00F048FC6B
:1066A000636C013304BF00236364A36C013304BF34
:1066B0000023A36400F04AFC02A801A9FFF736FEFC
:1066C000E8B900F035FCA76BE56B00F03FFCAF428A
:1066D0000FD104F110000199FFF78CFD2046FFF760
:1066E00012FFFFF75FFC08B10127B1E700F010FCD3
:1066F000FAE72046FFF707FFFFF754FCF4E72046D0
:10670000FFF701FFFFF74EFC002006E006480549B1
:1067100040F2322203F05CFF99E704B0BDE8F0815B
:106720005A3F0108623F0108773F010838B54C2005
:1067300000F052FB0446D0B101230025C3634FF0A3
:10674000FF33856345604364056083648560C5608D
:1067500005641030FFF7C4F904F12400FFF7C0F915
:10676000204629462A462B46FFF760FF05E00448ED
:1067700004494FF4C77203F02BFF204638BD00BF19
:10678000D23F0108623F01082DE9F0410D4616464F
:106790009846044628B91B481B4940F29F3203F033
:1067A00017FF0DB9236C03BB00F0BAFBA26BE36BC0
:1067B0009A42074617D2204629464246FFF764FE12
:1067C000A36C01330AD1636A5BB104F12400FFF7C3
:1067D00059FD30B12EB1012434600DE0A36C0133BA
:1067E000A364012408E0002406E0084806494FF4A9
:1067F000687203F0EDFED7E7384600F0A3FB2046B1
:10680000BDE8F0815A3F0108623F0108773F010867
:106810002DE9FF410E4601929846044628B94648A4
:1068200046494FF4806203F0D3FE16B9236C002B67
:1068300078D1002700F07CFBA36B3BB320463146A8
:10684000E568FFF74DFEB8F1000F12D1A36B013BD5
:10685000A363236813B9FFF7ABFD606023698BB1B5
:1068600004F11000FFF70EFD01280BD100F050FBE2
:1068700008E0636AE5602BB104F12400FFF702FD34
:106880000028F3D100F062FB012052E0019D15B910
:1068900000F05CFB44E017B902A8FFF72FFD00F001
:1068A00055FBFFF7F7FA00F043FB636C013304BFBD
:1068B00000236364A36C013304BF0023A36400F0CE
:1068C00045FB02A801A9FFF731FD20BB00F030FB1A
:1068D000A56B00F03BFBC5B9236833B900F028FB7A
:1068E0006068FFF779FD00F031FB04F124000199A5
:1068F000FFF780FC2046FFF706FEFFF753FB08B1C9
:10690000012797E700F004FBFAE72046FFF7FBFDBD
:10691000FFF748FBF4E72046FFF7F5FDFFF742FBE2
:10692000002006E00648054940F2014203F050FE0F
:106930007FE704B0BDE8F0815A3F0108623F0108DB
:10694000DD3F0108F8B50E461746044628B91B4836
:106950001B4940F2964203F03BFE0EB9236C03BB89
:1069600000F0DEFAA36B0546CBB120463146FFF7B7
:10697000B7FDA36B013BA363636C01330AD12369A9
:106980005BB104F11000FFF77DFC30B12FB10124A1
:106990003C600DE0636C01336364012408E01C4635
:1069A00006E00848064940F2974203F011FED7E797
:1069B000284600F0C7FA2046F8BD00BF5A3F01083C
:1069C000623F0108DD3F010810B5044628B90648BA
:1069D000064940F2CE4203F0FBFD00F0A9FAA46B99
:1069E00000F0B4FA204610BD5B3F0108623F010889
:1069F00038B504460D4600F09BFA636C013304BFC2
:106A000000236364A36C013304BF0023A36400F07C
:106A10009DFAA36B23B904F124002946FFF70EFC6D
:106A20002046BDE83840FFF76EBD0000F8B50D4CBC
:106A300000F07EFA25688DB90B4F0C4E3846FFF7F3
:106A40004FF83046FFF74CF8094B1F60094B1420F4
:106A50000C212A461E60FFF7C1FD2060BDE8F8400A
:106A600000F074BAB80500208C050020A0050020B5
:106A700088050020BC05002010B504469142416005
:106A8000206105D8D21A83699A420CD2074B04E0E0
:106A90009A4201D2994206D2054B1868211DFFF790
:106AA0003BF8002010BD012010BD00BFBC05002038
:106AB000880500201FB5FFF7B9FF0D4B1B6833B9E0
:106AC0000C480D49DD2203F083FD00200CE001237A
:106AD000009300230193029303930848084964221A
:106AE000FFF794F80028EBD005B05DF804FB00BF79
:106AF000B8050020A13E0108334001080D6C0008D4
:106B0000494001082DE9F041804617461E460D46D2
:106B100031B90D480D49EA2203F05AFD2C4610E028
:106B2000282000F059F9044658B1FFF77FFF069B73
:106B3000C4F80080A561E76126626362201DFEF74C
:106B4000DAFF2046BDE8F0815140010833400108DA
:106B50007FB50F4D064628681C46B8B101910292D8
:106B6000039673B9FFF72AFC012818BF224628684C
:106B700008BF089A01A90CBF23461346FFF756FD2C
:106B800004E01A4601A90023FFF7FEFD04B070BD22
:106B9000B8050020F7B5194D2B681A6842B3DA68BA
:106BA0001668DB68DC68271D3846FEF7CDFF636A90
:106BB00020469847E369012BEDD1A3693344B342E2
:106BC00006D96360246128683946FEF7A5FFE2E72D
:106BD00000210091204632460B46FFF7B9FF0028FE
:106BE000D9D10748074940F2762203F0F1FCD2E7F9
:106BF000054A11682960136003B0F0BD88050020C4
:106C00006D40010833400108BC0500202DE9F04724
:106C100086B0DFF870A1DAF800301C68B4FA84F4AA
:106C2000640914B9DB681E6800E00026504DFFF7C8
:106C300031F9FFF737F92B6898428146A84603D20D
:106C4000FFF7A8FF012300E00023C5F80090494F9B
:106C5000A3BB44BB4E4526D8FFF7A4F9DAF80030B1
:106C6000DB68DD68281DFEF76FFFEB69012B16D18D
:106C7000A969284631444A463346FFF7FDFE0128FC
:106C80000DD100942846214632462346FFF760FF87
:106C900028B93948394940F2551203F099FC6B6A1A
:106CA0002846984724E03868C9EB0601FFF7A0FEA4
:106CB000FFF778F9E0B900F02BF919E0FFF772F966
:106CC00016E0059C636913B1201DFEF73DFFFFF739
:106CD000E9F8D8F800309842054601D2FFF75AFF8C
:106CE000039EC8F80050022E2CD0032E3BD046B194
:106CF0000022386803A91346FFF78AFD0028E0D177
:106D000087E7049BA169204619442A46FFF7B4FE91
:106D10000128EDD1636A20469847E369012BE7D14A
:106D2000A269049B00961A44204631463346FFF779
:106D30000FFF0028DCD11048104940F22A2203F04E
:106D400047FCD5E7049BA3612BB90D480B4940F2E2
:106D5000372203F03DFCA169204629442A462B46F0
:106D6000FFF78AFEC4E7204600F090F8C0E700BFB6
:106D7000B4050020B80500206D400108334001082B
:106D80007540010888050020006A704710B5104B57
:106D90001A68824201D21346FAE759685C188442A5
:106DA00001BF406809181846596041684418944268
:106DB00009D1084C2468A2421FBF5268891841605B
:106DC0001A6818BF12680260834218BF186010BDAD
:106DD000C4050020C005002070B50446FFF75AF82E
:106DE000264A106898B9264B264923F007030B6002
:106DF000486003F59C41083144F60865486011601D
:106E0000585183E8220020490B68103B0B602CB1DD
:106E1000103463071CBF24F007040834611E44F6D5
:106E20001663994222D8174B1D686968A14203D3A3
:106E30001268954206D119E029680029F8D02B463E
:106E40000D46F2E72A681E681A606B681B1B202B30
:106E500006F1100604D9281943606C60FFF796FF0D
:106E6000094A696813685B1A136000E00026FFF79F
:106E700099F80EB901F014F9304670BDC005002034
:106E8000D4050020C40500200400002010B50446ED
:106E900078B1FEF7FFFF074A54F80C1C1368A4F101
:106EA00010000B441360FFF771FFBDE81040FFF7BF
:106EB00079B810BD04000020014B1868704700BF6E
:106EC0000400002003480068006880F3088862B668
:106ED00000DF00BF08ED00E04FF0807300E90A001A
:106EE000002340F80C3C40F8202C4038704700004C
:106EF000064B19680868B0E8F00F80F309884FF076
:106F0000000080F311884EF00D0E704750050020F0
:106F1000024B4FF080521A60704700BF04ED00E052
:106F2000EFF311804FF05F0181F31188704700206B
:106F300008B5FFF7F5FF024A13680133136008BD77
:106F40000800002080F3118870470000034B186888
:106F50000138186008B9FFF7F5BF70470800002036
:106F6000EFF309800C4B1A6820E9F00F10602DE94F
:106F700008404FF05F0080F31188FFF7F1F84FF001
:106F8000000080F31188BDE8084019680868B0E87F
:106F9000F00F80F3098870475005002008B5064BB4
:106FA0004FF080521A60FFF7BBFFFEF787FF00200B
:106FB000BDE80840FFF7C6BF04ED00E0034B044AFC
:106FC0001A60072243F8042C704700BF14E000E069
:106FD0003F90020010B5094B1A6842F47F021A6014
:106FE0001A6842F07F421A60FFF7E8FF044B002462
:106FF0001C60FFF767FF204610BD00BF20ED00E0DA
:107000000800002008B54FF48070012100F020FB3B
:107010004FF480700021BDE8084000F019BB00006B
:10702000436823F040720B6822F4807213430A799C
:1070300043EA022343600B69CA681A438B6810B5A0
:107040001A438468084B234013434A7943EA4203B6
:107050008360C36A23F470020B7D013BDBB242EA1A
:107060000353C36210BD00BFFDF7FFC000230360E0
:10707000037143718360C36003610123037570472B
:1070800010B5074C074B6268134090E806001143A7
:1070900082681143C2680A431343636010BD00BF96
:1070A00000230140E030FCFF002303604360836065
:1070B000C3607047836811B143F0010301E023F01E
:1070C0000103836070470000044BDA6809B1104384
:1070D00001E022EA0000D860704700BF002004E011
:1070E000036823F0010303600023036043608360AF
:1070F000C360036121234361294B984217D0294B78
:1071000098421BD0284B984220D0284B984225D03B
:10711000274B98422AD0274B98422ED0264B984294
:1071200032D0264B984236D0254B984203D13D228F
:1071300043F8082C7047234B984204D14FF47462F3
:1071400043F8202C7047204B984204D14FF474121E
:1071500043F8382C70471D4B984204D14FF07462AD
:1071600043F8502C70471A4B984203D1194A43F800
:10717000642C7047184B984203D1184A43F87C2C72
:107180007047174B984203D1164A43F8942C704726
:10719000154B984203D14FF03D5243F8AC2C704749
:1071A0001060024028600240406002405860024087
:1071B0007060024088600240A0600240B8600240F7
:1071C0001064024028640240406402405864024057
:1071D000706402403D00002088640240400F00209F
:1071E000A064024000003D20B86402400268134BD6
:1071F00010B51340CC680A6814434A6914438A697D
:107200001443CA6914430A6A14434A6A14438A6AD3
:1072100014434A6B14438A6B22431343036043694C
:107220000C6B23F00702CB6A2343134343610B69C2
:1072300043604B6883608B68C36010BD3F801CF067
:10724000036811B143F0010301E023F0010303607F
:10725000704741607047406880B27047006800F036
:10726000010070470B0611D543694AB143F0800312
:107270008029436114D0036801F01E0119430EE018
:1072800023F080038029436104D17047802907D00F
:10729000002AF0D1036801F01E0123EA0101016018
:1072A00070470000104A114B10B5114CA04294BF1A
:1072B0001C46144621F0F02323F0C3122AB10068C3
:1072C00000F01E0000EAD12202E0406900F08002D6
:1072D00089004CBF6068206823F08213184002D0F8
:1072E000101C18BF012010BD006402400060024065
:1072F0000F64024010B5084A084B094CA04294BFE5
:107300001846104611F0005F21F0F02121F08211A3
:1073100014BFC160816010BD006402400060024083
:107320000F640240837910B50468002B31D01E4BE6
:10733000196821EA04021A605A68016822EA010207
:107340005A600279016802F1804202F59E321468A7
:10735000214311609A68016822EA01029A60DA68A2
:10736000016822EA0102DA6042790168102A0BBF43
:107370009A6802F18043114303F59E3303BF99607D
:10738000D96802681A680BBF0A431143DA601960B2
:1073900010BD037903F1804303F59E331A6822EA96
:1073A00004021A6010BD00BF003C0140014B58614F
:1073B000704700BF003C0140034B5B69184214BF9B
:1073C00001200020704700BF003C0140014B586184
:1073D000704700BF003C0140F0B5002201230C685B
:1073E00093401C409C4229D1550003230668AB40C2
:1073F000DB431E4006600E790768AE403E430660E0
:107400000E79013E012E11D886681E4086604E79A5
:107410008768AE403E438660466826EA04044460BE
:107420008C7946689440A4B234434460C4682340D5
:10743000C360CB79C468AB402343C3600132102AD8
:10744000CCD1F0BD0369194214BF01200020704760
:10745000018370474183704710B501F00703C908E5
:1074600000EB81009B00046A0F21994024EA01018E
:107470000162016A9A401143016210BD7FB586889E
:1074800026F03F060446360468460D46360C00F0EA
:107490005FF8029A2C48B2FBF0F081B20E43A6804E
:1074A00023882A4E23F001031B041B0C23802B6826
:1074B000B3420AD85B000131B2FBF3F39BB2032B5A
:1074C00089B298BF0423218423E0EE884BF6FF7134
:1074D0008E421BBF19214B4303EB4303B2FBF3F373
:1074E00015BF9BB2B2FBF3F343F480439BB2C3F3EB
:1074F0000B020AB943F001034FF4967101FB00F24D
:107500004FF47A7192FBF1F2013292B243F40043EC
:107510002284A38323889BB243F001032380238822
:107520006989AA8823F4816323F002031B040A43B8
:107530001B0C13439BB223802A89AB8913439BB254
:10754000238104B070BD00BF40420F00A08601003F
:1075500010B51D4A936803F00C03042B03D0082BCD
:1075600003D01A4B18E01A4B16E05168536811F417
:10757000800F03F03F03516814BF154A134AB2FB52
:10758000F3F3114A5268C2F30142C1F38811013288
:107590004B435200B3FBF2F30B4A036093680D496F
:1075A000C3F30313CC5C0368E34043609468C4F303
:1075B00082240C5D23FA04F484609268C2F34232A0
:1075C0008A5CD340C36010BD003802400024F40040
:1075D00000127A000C000020044B1A6B09B1104312
:1075E00001E022EA00001863704700BF0038024043
:1075F000044B5A6B09B1104301E022EA00005863C2
:10760000704700BF00380240044B1A6C09B11043A8
:1076100001E022EA00001864704700BF0038024011
:10762000044B5A6C09B1104301E022EA000058648F
:10763000704700BF00380240044B1A6A09B110437A
:1076400001E022EA00001862704700BF00380240E3
:10765000044B5A6A09B1104301E022EA0000586263
:10766000704700BF003802401C4A038890429BB21A
:1076700012D002F5806290420ED0B0F1804F0BD054
:10768000A2F58032904207D002F58062904203D08A
:1076900002F58062904203D14A8823F070031343BD
:1076A0000F4A904208D002F5806290421FBF23F437
:1076B00040730A899BB2134303804B68C3620B88F3
:1076C0000385064B984203D003F58063984201D1AD
:1076D0008B7A038601238382704700BF000001403C
:1076E00000100040038819B19BB243F0010303E08E
:1076F00023F001031B041B0C03807047038C23F051
:1077000010031B041B0C0384038C30B58588028B8B
:107710000C8822F4E6421204120C42EA042223F0FE
:10772000200394B21B048A891B0C43EA02134A8883
:1077300043EA0213124A9042ADB29BB203D002F563
:107740008062904215D123F08003CA899BB243EA3C
:1077500002124FF6BF7313408A8843EA02130A8A63
:1077600025F4406545EA82054A8A45EA82059BB2CE
:10777000ADB2858004838A688263038430BD00BF14
:1077800000000140038C23F480531B041B0C038472
:10779000038C30B58488828B0D8822F4E642120473
:1077A000120C23F4005342EA05221B048D891B0CA2
:1077B00043EA05334D8843EA05330B4DA842A4B292
:1077C00092B29BB203D005F58065A84205D10D8A1F
:1077D00024F4804444EA8514A4B2848082838A68B5
:1077E0000264038430BD00BF000001408163704724
:1077F00001647047038B23F400631B041B0C43EAF2
:10780000012189B201837047838B23F400631B0439
:107810001B0C43EA012189B281837047B0F84430E0
:1078200029B16FEA43436FEA53439BB201E0C3F3CC
:107830000E03A0F8443070477FB5038ACA889BB214
:1078400023F440531343038283890E469BB223F4EF
:10785000B053098923F00C02B3880B4371890B43A1
:107860009BB213438381838AB2899BB223F4407312
:107870001343838204466846FFF76AFE1A4B9C4214
:1078800003D003F580639C4201D1039D00E0029D7B
:10789000A38931681BB2002B4FF0190202FB05F2DD
:1078A000B4BF4D008D00B2FBF5F5A2896426B5FB8F
:1078B000F6F00001010912B2002A06FB1153ADBF18
:1078C0001A01D90032313232B5BFB1FBF6F2B2FB48
:1078D000F6F302F0070203F00F03B4BF104318439E
:1078E00080B2208104B070BD00100140838919B1BD
:1078F0009BB243F4005303E023F400531B041B0C1E
:1079000083817047C1F30801818070478088C0F38C
:1079100008007047838A9BB20AB1194301E023EA49
:1079200001018182704710B5C1F34214012301F0B7
:107930001F01012C03FA01F301D10C3003E0022CEA
:107940000CBF1030143012B10268134302E0026819
:1079500022EA0303036010BDC94389B20180704766
:10796000012310B5C1F3421401F01F029C4203FA37
:1079700002F201D1838903E0022C0CBF038A838ABF
:107980009BB21340028892B23BB1090A01238B409B
:10799000134214BF0120002010BD184610BD090A73
:1079A00001238B40DB439BB20380704740F0BF60F4
:1079B000024B40F40030D860704700BF00ED00E09B
:1079C000C278037810B512B3164AD1684278C94319
:1079D000C1F30221C1F10404E4B2A240D4B20F22E7
:1079E0000A4181780A40224303F1604303F5614371
:1079F0001201D2B283F8002303780122590903F05F
:107A00001F0302FA03F3084A42F8213010BD5A0955
:107A1000012103F01F03994002F12003024A42F8BA
:107A2000231010BD00ED00E000E100E008B505F016
:107A3000EBFB00F05DFBFEF7F5F905F00DFC002017
:107A4000012105F003FC0120014605F0FFFBFEE7E4
:107A500008B54FF48060FFF7AFFC012805D14FF463
:107A60008060BDE80840FFF7B1BC08BD4FF440702E
:107A7000FFF79CBF08B5FFF791FABDE8084003F097
:107A800065BA70471EF0040F0CBFEFF30880EFF3E8
:107A9000098000F001B870472DE9F84FD0F800B028
:107AA000D0F804A0D0F80890D0F80C800769466997
:107AB0008569C4692549264802F09AFE254924486B
:107AC0005A4602F095FE24492148524602F090FEA3
:107AD00022491F484A4602F08BFE21491C48424673
:107AE00002F086FE1F491A483A4602F081FE1E49FE
:107AF0001748324602F07CFE1C4915482A4602F01F
:107B000077FE1B491248224602F072FE194B1A49B1
:107B10001A680F4802F06CFE184B19491A680C4895
:107B200002F066FE174B18491A68094802F060FE19
:107B3000164B17491A68064802F05AFE154B0448BE
:107B40001A68154902F054FEFEE700BF9A4001088A
:107B500091EA0008B0400108B9400108C24001089C
:107B6000CB400108D4400108DE400108E74001088D
:107B7000F040010838ED00E0FA40010828ED00E08F
:107B8000054101082CED00E01041010830ED00E056
:107B90001B4101083CED00E026410108FEE7FEE73D
:107BA000FEE7704706F034BB7320704700B589B01C
:107BB000124B1B6868469B68984702460028F7D11D
:107BC0009DF801300E491B0951F8230020B1694688
:107BD0001346FEF72BFD03E00A4A136801331360D6
:107BE0009DF80130084A1B0952F823100029DFD004
:107BF00052F8233068469847DAE700BF300000208B
:107C0000EC530020785400203054002000B589B097
:107C1000084B694618684FF0FF320023FEF7F8FD65
:107C20000128F5D1044B1B6868465B68984700281B
:107C3000F8D0EDE774540020300000207FB5154DDA
:107C40002C7824BB202122463C20FEF7C7FC124B97
:107C50002021186022460220FEF7C0FC0F4B10497D
:107C6000186002266422234600960194029403942D
:107C70000C48FDF7CBFF2346009601940294039431
:107C800009480A496422FDF7C1FF01232B7004B0A3
:107C900070BD00BF70540020745400202C5400208C
:107CA000314101080D7C0008AD7B00083941010815
:107CB000014B1878704700BF7054002038B5094B4D
:107CC00053F8202005461C4622B1074807495C228C
:107CD00002F07EFC012020210022FEF77FFC44F808
:107CE000250038BDEC5300204141010858410108EE
:107CF00070B50E4B53F8202006460D461C4622B99F
:107D00000B480C496B2202F063FC25B90A4809496B
:107D10006C2202F05DFC54F8260029464FF0FF3239
:107D20000023BDE87040FEF773BD00BFEC53002098
:107D30006B41010858410108114F010808B5034B78
:107D40001868FEF741FEC0F13C0008BD74540020E5
:107D50001028DCBF014B43F820107047305400203E
:107D600010B5044620B907480749AF2202F030FC9D
:107D7000064B0022186821461346BDE81040FEF766
:107D800055BC00BF114F0108584101087454002030
:107D900008B5064B00211868FEF7E8FB044B1B688A
:107DA0001B6903B19847002008BD00BF7454002030
:107DB00030000020034B1B68DB6803B1184701202B
:107DC000704700BF3000002070B5094C236805469D
:107DD00013B11B68002098470DB1256001E0054BE9
:107DE0002360236801201B68BDE87040184700BF6E
:107DF000300000201C00002038B50C4C4FF0FF3341
:107E00000021054644F8203005F020FA084A2823CE
:107E100003FB0522002352F82310013102D044F85D
:107E2000253038BD01330A2BF5D138BD4855002027
:107E30007C5400202DE9F74F8046FEF7A5FF2C4B20
:107E40001B78002B50D0C5B22A4B53F82530581C54
:107E50004AD00A2606FB0536DFF8A490264A59F8D0
:107E6000264052F823B0254F0021631C0BEBC40AB7
:107E700049F8263038680B464FF0FF32FEF7C8FC51
:107E8000DAF80430991C08D05A1C0AD1284649F85F
:107E900026300024FFF7B0FF1EE0002449F82640FA
:107EA0001AE01BF83410284605F0D0F9DAF804205F
:107EB000002482B12346022100944046FEF748FE8A
:107EC000FDF7F0FF00940246214623464046FEF7A8
:107ED0003FFE012400E01446002138680A460B46A4
:107EE000FEF7A4FB002CAFD003B0BDE8F08F00BFBD
:107EF00044550020485500207C4101087055002061
:107F00007C54002037B51E4B1C781D46ACBB05F0D9
:107F1000A3F923461B4A4FF0FF3142F823101A49B8
:107F2000282202FB031100224FF0FF3041F822000B
:107F300001320A2AF8D10133052BEBD10024134B6F
:107F40000093134823464FF47A710022FEF7DAFDBE
:107F5000104B43F824000134052CF0D103220120FA
:107F60000021FEF73BFB0C4A106020B100210A46BD
:107F70000B46FEF75BFB01232B7003B030BD00BF47
:107F800045550020485500207C540020357E0008CF
:107F9000A44101085C5500207055002010B5044B29
:107FA0001C7805F08FF9034B01221A70204010BD98
:107FB0004555002044550020F8B505460024174BD0
:107FC00053F824308B4223D1154F00210B464FF03C
:107FD000FF323868FEF71CFC0A2303FB0543114AF5
:107FE0000026284642F82360FFF706FF334638682C
:107FF00031463246FEF71AFB0B4B53F82530A342AD
:108000000AD10A4B53F82500BDE8F840FFF712BF2C
:1080100001340A2CD3D1F8BDF8BD00BF7C41010862
:10802000705500207C540020485500205C550020ED
:108030004160C2607047000070B505460024144BD3
:1080400053F824308B421FD1124E00210B4630686A
:108050004FF0FF32FEF7DCFB0A2303FB05440E4B17
:108060004FF0FF32284643F82420FFF7C5FE0021D9
:1080700030680B460A46FEF7D9FA084B53F825003C
:10808000BDE87040FFF7D6BE01340A2CD7D170BDD1
:108090007C410108705500207C5400205C55002074
:1080A00008B5FEF73DFF0649064802F0A1FB022095
:1080B000012105F0CBF80420012105F0C7F8FEE707
:1080C000B04101083984000808B5FEF729FF0649C8
:1080D000064802F08DFB0220012105F0B7F80420CC
:1080E000012105F0B3F8FEE7C14101083984000819
:1080F0001FB50223009300230193029303930449C5
:108100000448C822FDF782FD05B05DF804FB00BFFE
:10811000D34101088D81000838B50D4C2578B5B9DB
:108120000120FEF703FB0B4B29464FF0FF3218608E
:108130002B46FEF76DFB08F005FB02F0F3F908F0A3
:10814000BBFAFFF7DFFE07F0F3FB0123237038BD16
:1081500075550020385F002038B5064B1C78FFF7B6
:108160001DFF054607F00AFC2840044002F0E6F92E
:10817000204038BD75550020034B002118680A4681
:108180000B46FEF753BA00BF385F002037B505F045
:1081900063F80020012105F059F806F0B3FBFFF762
:1081A000BBFF00F0DFF841494148424D02F020FB9F
:1081B00041493F4802F01CFB4049414B0C682D7877
:1081C000404841491A68414B002D18BF01461B68C1
:1081D0003748009401913E493E4D02F009FB3E4B69
:1081E0003E491B6800933E4B3148B3F90030019380
:1081F0003C4B1A68043B1B6802F0FAFA00F0E4FCFE
:1082000001F000FE08F056F800F08CFCFFF7A4FF28
:10821000044608F02FFB2040C4B200F0C1F804402F
:1082200000F0F2FC044001F01DFE044008F0CAF822
:10823000044000F099FC6CB160B101242C70FFF790
:108240009BFF04202849FFF7B7FE20462749FFF788
:10825000B3FE1CE000232B70FFF77EFF88B10420E3
:108260002249FFF7A9FE4FF4FA60FDF74BFF2B7888
:10827000002BF4D01E490E4802F0BAFAFFF77CFF3B
:1082800005E004F0E9FF0420012104F0DFFFFEF720
:1082900013FE18490246064802F0AAFA02F056F9FF
:1082A0004FF0FF30FDF72EFFFAE700BFE94101086C
:1082B00039840008974501080C420108C8010020D4
:1082C000CC010020DA410108E3410108C40100208B
:1082D0002F42010874550020107AFF1F49420108FF
:1082E000227AFF1F187AFF1FAC0000203400002004
:1082F000774201088B42010810B50B4B1B781BB964
:108300000220FDF7FFFEF8E7084C00210B4620682D
:108310004FF0FF32FEF77CFA002120680A460B4638
:10832000BDE81040FEF782B975550020385F002087
:10833000014B1870704700BF7655002010B5084CEF
:10834000FDF7B0FD2368C01A42F21073984206D9B7
:10835000FDF7A8FD2060BDE81040FDF735BC10BD5D
:108360007401002010B50D4C2378ABB906F090FDD8
:1083700007F050FDFFF762FC07F0ACFDFFF724FDAE
:1083800000F018F908F08EF802F072F800F030F8FA
:1083900000F042F90123237010BD00BF7755002083
:1083A00038B50B4B1C7807F0FDFC0546FFF780FC49
:1083B0002840044000F00EF9044008F083F804401F
:1083C00000F034F8044000F06DF9204038BD00BFE3
:1083D0007755002010B5054C2046FFF7C1FC012859
:1083E0004FF000030CBF2370184610BD3C5F002007
:1083F00038B50B4B1C781D468CB90A4B0322012063
:1084000021461C705C70FEF7E9F8074A106020B145
:10841000214622462346FEF709F901232B7038BD79
:108420007C5500203C5F002078550020014B1878D7
:10843000704700BF7C55002070B51A4D00210646DC
:108440004FF0FF3228680B46FEF7E2F9012827D1EA
:10845000154C23781D2B04D9FFF770FC012817D188
:1084600009E0E2180133DBB20A2E96702370F3D0D4
:108470001E2BF1D00EE0207800231A18002A07DD09
:108480000A491944224409799170013B5A1DF4D1DB
:10849000FFF7A0FF002128680A460B46FEF7C6F842
:1084A000F0B270BD785500203C5F0020F142010819
:1084B00010B58361029BC361064BC362064B036325
:1084C0000024039B44608460C460046101604261D5
:1084D000436310BD00409C4500409CC52DE9F04120
:1084E00004461AB10068FCF729FB60606568666B9A
:1084F00028463146FCF72CFCE168FCF721FBE76AD3
:10850000E06039468046FCF7DFFD28B9276B40461E
:108510003946FCF7BBFD00B1E760A1682846FCF7CF
:108520000DFB3146FCF7C8FC616920610646284610
:10853000FCF70EFCE16820628046A069FCF708FCAD
:10854000E169606207463046FCF702FC39460646A0
:10855000A062A5604046FCF7F3FA3146FCF7F0FA5A
:10856000BDE8F081C1627047002343608360C3604F
:1085700003617047416070470160704738B54378C8
:1085800013F0030305460FD0012B00D038BD04467D
:108590001E2204F8022B002120460BF009FB204686
:1085A00003490BF053FB2846BDE83840FFF7D8BB22
:1085B000F642010810B5054C23782BB90F20044969
:1085C000FFF7C6FB0123237010BD00BF7D550020BF
:1085D0007D850008014B1878704700BF7D5500204D
:1085E00030B50B4B1C680B4B00221D681346A34291
:1085F00009DA0C2159436956002902DB824205D071
:1086000001320133F3E74FF0FF3030BD184630BD83
:108610009055002088550020F0B5184D2C7885B075
:108620004CBB1748174B1849184E194F30601B1A8E
:108630009B105943396002F0E9F8164A164B3F681F
:108640003668116818602346BB4207DA0C2058438D
:10865000013330560028A8BF0131F5E7002301247B
:1086600011600E4800940193029303930C49642215
:10867000FDF7CCFA2C7005B0F0BD00BF8C55002082
:10868000185401082C580108ABAAAAAA8855002042
:10869000905500208055002084550020A1870008B7
:1086A00009430108014B1878704700BF8C55002022
:1086B0002DE9F04118B101281ED0BDE8F081314B01
:1086C000314A324C1F68136894F803E0304D04338C
:1086D0000146B9424BDA13F8046C16F0800F03D050
:1086E000F50705D51D6804E0704513D0013000E0A2
:1086F000274D01310C33ECE7244B20225A7006221F
:108700001A70244A98701268DA70234A1068586008
:10871000184633E0202363700023A3700C231268F3
:10872000E0704B43D7182846D35C23710BF0ECFA6A
:108730002946421C1948FCF7C9FF28460BF0E4FA09
:10874000D7F80480064640460BF0DEFA2644421C69
:108750004146B01DFCF7BAFF28460BF0D5FA054696
:1087600078680BF0D1FA28440530207005E020230A
:1087700063700023A370012323700448BDE8F04117
:10878000FFF7EEBA90550020885500205C5F00206E
:10879000C04101088055002084550020615F002001
:1087A0002DE9F74F0220FFF789FA804C022021467D
:1087B000FFF79EFA6678A57816F00306274603D1E0
:1087C0002846FFF775FFF0E7012E30D12846FFF766
:1087D00007FF002805DAFF23A3700223E570237149
:1087E00030E00C235843724B1B681A5C191802F0D6
:1087F0000302022A8B680CD0032A0FD0012A15BF6E
:108800001B781B88E370A4F8033014BF02230323F2
:108810000BE01B68C4F80330052306E01A68C4F8AF
:1088200003205A68C4F80720092323702EE0022E83
:108830002ED12846FFF7D4FE002807DAFF23A370C5
:10884000E57026710323237020469CE00C235843D7
:10885000574B1B681A181B5C5906A6D403F0030378
:10886000022B926809D0032B0BD0012B15BFE378A4
:10887000B4F803301370138008E0D4F803301360A9
:1088800004E054F8031F636882E80A0047487AE06E
:10889000002D8AD12B46FA18927802B9013501339E
:1088A0001E2BF8D1012D7EDD42480BF02DFA07EB8F
:1088B000000808F10408814640460BF025FA00EB59
:1088C00009030093FB18DFF8F8905E793A4B1B68B8
:1088D0000193374BD3F800A04FF0000B5546019B96
:1088E0009B4518DA29780A0604D5CB070DD5D5F8AB
:1088F00004900CE068684146FCF786FF38B94846AA
:108900002C49FCF781FF10B907E0DFF8B4900BF1B8
:10891000010B0C35E3E7022520E00C2303FB0BF3EE
:108920000AEB03021AF803309E423AD106F04003E4
:1089300003F0FF05002B32D1009B9168043306F051
:1089400003063B44022E03F102001FD0032E21D068
:10895000012E15BF9B785B880B700B8015480BF0C0
:10896000D3F9064640460BF0CFF9374438444571F9
:1089700010480BF0C9F9054640460BF0C5F92844EC
:10898000043020700D48FFF7EBF90EE7D3F8023002
:108990000B60E3E7D0E90023C1E90023DEE70D2502
:1089A000DCE71625DAE703B0BDE8F08F5C5F002056
:1089B000885500205F5F0020905500205C5F0020FC
:1089C000C041010807B50420FFF778F9504C042096
:1089D0002146FFF78DF9627802F00302012A23464F
:1089E00044D0022A6DD0002AF0D1A378012B02D006
:1089F000022B0BD0EAE7A370464B1B784022627033
:108A0000013302222270E37020467EE0E07823707A
:108A100040226270A37080B93F4B207141F6FF7213
:108A20001A603E4A18681368C4F809305368C4F8DD
:108A30000D30C4F805000F2365E0394D0138C0B290
:108A4000294607F0F1FA00285ED0334A702101234D
:108A50001160106823712A682378C4F809206A68B5
:108A6000C4F80500C4F80D200D334CE0D4F8030021
:108A7000A278019041216170E579019962B96A1883
:108A8000B2F5005F13D204F1080089B22A4605F05E
:108A9000BDFE60B100230BE06818702807D8501E97
:108AA00089B22A460833C0B207F038FBF1E7052344
:108AB000174AE37113B90635157025E006231370C4
:108AC00022E0D4F80300227801904221053A617037
:108AD000A5780199D2B250184DB9B0F5005F0FD208
:108AE000E01D89B205F0AAFE50B1002309E070280C
:108AF00006D8681E89B20733C0B207F073FBF3E7EC
:108B00000523E371062323700148FFF729F95DE788
:108B10009C550020C1550020BC550020134301087E
:108B20009455002030B50C4D2C7885B08CB90B488D
:108B300007F058FA003018BF0120012328708DE893
:108B40001800029403940648064964222346FDF760
:108B50005DF805B030BD00BFC0550020C1550020F4
:108B6000C58900080F430108014B1878704700BF02
:108B7000C055002070B5104C10492368B3FA83F338
:108B80000E225B09851C02FB03120E3055F8046BA4
:108B900042F8046B8542F9D1288810800E222360A8
:108BA00002FB03139B890BB9054A1370FDF77AF991
:108BB000044B186070BD00BFC4550020C85500208C
:108BC000E6550020E855002010B50A4C23787BB903
:108BD000FFF734F803200849FFF7BAF8FDF762F908
:108BE000064B074A186001231370064A237013705E
:108BF00010BD00BFE7550020758B0008E855002028
:108C0000E4550020E655002008B5FFF751F8014B68
:108C1000187808BDE755002070B5114B114C1E683F
:108C2000FDF740F9104B1B68C01AB0F5FA7F14D954
:108C30000E4D0E2303FB06F2A9180023B0F5FA6FC0
:108C4000AB504B608B6008D9094A0B731370094A0B
:108C50004B7301232370137070BD0023237070BD0C
:108C6000C4550020E4550020E8550020C8550020D8
:108C7000C2550020E655002008B5FDF713F9024B58
:108C80001B68C01A08BD00BFE855002030B5064B70
:108C90001C68064B0E2505FB04331C6804605868ED
:108CA00008609B68136030BDC4550020C855002083
:108CB00070B5194C23780370184B16461A781D4668
:108CC0000AB9237800E0002303F001030B70237836
:108CD000BBB1134B1A68134B0E2101FB0233988969
:108CE000FBF7DEFFFBF7C0FB09A3D3E90023FBF78B
:108CF0005BFA07A3D3E90023FBF734FDFBF7CAFEB9
:108D000000E00020306023782B7070BDAFF300804E
:108D100000000000C0FFDF40C2550020E5550020E4
:108D2000C4550020C8550020012303700B70002398
:108D3000137070470B4B1A680B4B0E2101FB02336B
:108D400099890A4B1B780BB1002307E0B1F57A7FB4
:108D5000FAD94EF66023994298BF0B460380FFF77D
:108D60005BBF00BFC4550020C8550020E655002059
:108D700073B52A4E3378002B4DD10024284D294855
:108D8000294A0094214623460195FFF791FB274885
:108D9000254A0094214623460195FFF789FB224A84
:108DA000234B2448009421460195FFF781FB1D4881
:108DB0002149FFF7D7FB1D481F49FFF7D3FB1D488B
:108DC0001E49FFF7CFFB1E481E4A009421464FF074
:108DD00080430195FFF76CFB1B481A4A009421461B
:108DE0004FF080430195FFF763FB23462246174867
:108DF000009421460195FFF75BFB11481449FFF7EA
:108E0000B1FB11481249FFF7ADFB10481149FFF7BC
:108E1000A9FB0123337002B070BD00BFEC550020E8
:108E20006F12033B6460002000008C42F45F00205E
:108E30009A998541B85F00203333054233B3264306
:108E40007C5F0020000060402C6000209C600020BF
:108E50000000A0410000B443014B1878704700BFE8
:108E6000EC55002070B504460E462F4819461546AD
:108E7000FFF782FB21462C480122FFF72FFB2B49ED
:108E80000446FCF721F948B920462949FCF7FEF8C9
:108E900038B92046FCF722F980B204E047F6FF70AB
:108EA00001E048F20100234B049918802248FFF7A3
:108EB00063FB314620480122FFF710FB1B490446A3
:108EC000FCF702F948B920461949FCF7DFF838B930
:108ED0002046FCF703F980B204E047F6FF7001E09A
:108EE00048F20100154B059918801548FFF744FB1F
:108EF000294613480122FFF7F1FA0C490446FCF712
:108F0000E3F848B920460A49FCF7C0F838B92046CA
:108F1000FCF7E4F880B204E047F6FF7001E048F2A5
:108F20000100084B188070BD6460002000FEFF4601
:108F300000FEFFC6F05F0020F45F0020B65F002057
:108F4000B85F0020B45F002070B50C460646194695
:108F50001C481546FFF710FB012231461948FFF760
:108F6000BDFA069B049918601748FFF705FB2146D8
:108F700001221548FFF7B2FA079B294618600598A9
:108F8000FBF7DCFD11490446FCF79EF820B12046B2
:108F90000F49FBF7D3FD08E020460E49FCF776F8B1
:108FA00020B120460A49FBF7CBFD04460A4821467A
:108FB000FFF7E0FA084829460022FFF78FFA089BDE
:108FC000186070BD7C5F00202C60002000003443DE
:108FD0000000B443000034C39C60002008B50A4878
:108FE000FFF7C2FA0948FFF7BFFA0948FFF7BCFAD2
:108FF0000848FFF7B9FA0848FFF7B6FA0748BDE88E
:109000000840FFF7B1BA00BF7C5F00202C60002051
:109010009C60002064600020F45F0020B85F0020A6
:10902000044B1B880380044B1B880B80034B1B885D
:1090300013807047F05F0020B65F0020B45F00200F
:10904000024B1A780AB901221A707047F4550020B1
:10905000014B1878704700BFF45500200000000055
:109060002DE9F04F87B014460D469846FBF7FCF902
:1090700099A3D3E90023FBF74BFA0022984BFBF7A7
:1090800071FBFBF707FD06462846FBF7EDF992A3B7
:10909000D3E90023FBF73CFA0022914BFBF762FB7C
:1090A000FBF7F8FC05462046FBF7DEF98AA3D3E977
:1090B0000023FBF72DFA0022894BFBF753FBFBF74C
:1090C000E9FC002104464046FBF7D6FF58B1109852
:1090D0000021FBF7D1FF30B111980021FBF7CCFF45
:1090E000002840F0338141464046FBF731FE0746F9
:1090F00010980146FBF72CFE01463846FBF720FD91
:10910000074611980146FBF723FE01463846FBF758
:1091100017FD4710C7F1BE4707F55D1707F5CE5796
:109120001F374FF07C51FBF713FE3946FBF710FE5B
:109130003946FBF70DFE01464FF07F50FBF7FEFC72
:1091400001463846FBF704FE074639464046FBF722
:10915000FFFD394682461098FBF7FAFD394602902A
:109160001198FBF7F5FD5F4B5F491A685F4B0F687D
:10917000D3F800805E490492D1F8009083464146BE
:109180001046FBF7E5FD494601903846FBF7E0FD48
:10919000DDF804C001466046FBF7D0FC049A03905A
:1091A00011463846FBF7D4FD414601904846FBF78F
:1091B000CFFD019A01461046FBF7C2FC39468146B5
:1091C0003846FBF7C5FD4FF07C51FBF7B7FC414635
:1091D00007464046FBF7BCFD01463846FBF7B0FCAE
:1091E0000346194602980493FBF7B2FD4946074629
:1091F0005846FBF7ADFD01463846FBF79FFC039947
:1092000001905846FBF7A4FD049B3A4F194683464C
:109210005046FBF79DFD01465846FBF78FFC49463B
:1092200083465046FBF794FD0399DFF8D0A08146B2
:109230000298FBF78DFD01464846FBF77FFC2E4B5D
:109240000290D3F80080DFF8B8904FF0000C614630
:109250004046CDF80CC0FBF737FFDDF80CC0002806
:1092600050D040460199FBF773FD1299FBF770FD52
:10927000DAF80010FBF764FC5946CAF800000390C6
:109280004046FBF765FD1299FBF762FD3968FBF775
:1092900057FC0299386082464046FBF759FD129907
:1092A000FBF756FDD9F80010FBF74AFCDDF80CC0BF
:1092B000C9F80000614680463046FBF741FC514644
:1092C00006462846FBF73CFC414605462046FBF790
:1092D00037FC04461CE000BF182D4454FB21094014
:1092E00000806640F85500207801002000560020DC
:1092F000FC550020085600207C0100200456002068
:10930000F0550020CAF800C0C7F800C0C9F800C076
:10931000834B0199D3F800804046FBF719FD0146C5
:109320003046FBF70DFC594606464046FBF710FD5C
:1093300001462846FBF704FC029905464046FBF728
:1093400007FD01462046FBF7FBFB044612984FF051
:109350007C51FBF7FDFC804641463046FBF7F8FCAC
:10936000414606462846FBF7F3FC414607462046A1
:10937000FBF7EEFC6B4BDFF8B8C1D3F800806A4A0C
:109380006A4BDCF800A015681C68CDF814C0814653
:10939000314608F1004004920393FBF7D9FC3946AB
:1093A00083462846FBF7D4FC01465846FBF7C6FB2C
:1093B000494683462046FBF7CBFC01465846FBF75F
:1093C000BDFB01465046FBF7BBFB314601905046C2
:1093D000FBF7BEFC494683462846FBF7B9FC01462D
:1093E0005846FBF7ADFB394683462046FBF7B0FCF9
:1093F00001465846FBF7A2FB01464046FBF7A0FB9F
:10940000394602905046FBF7A3FC49468346404646
:10941000FBF79EFC01465846FBF790FB314683461E
:109420002046FBF795FC01465846FBF789FB0146B1
:109430002846FBF785FB494683465046FBF788FCE8
:10944000394681464046FBF783FC01464846FBF718
:1094500077FB314607462846FBF77AFC014638463B
:10946000FBF76CFB01462046FBF76AFB05460198BB
:109470000146FBF76DFC044602980146FBF768FCC9
:1094800001462046FBF75CFB594604465846FBF76D
:109490005FFC01462046FBF753FB2946044628465D
:1094A000FBF756FC01462046FBF74AFB4410C4F18B
:1094B000BE4404F55D1404F5CE541F344FF07C51C6
:1094C000FBF746FC2146FBF743FC2146FBF740FC3B
:1094D00001464FF07F50FBF731FB01462046FBF77A
:1094E00037FC044621460198FBF732FCDDF814C036
:1094F0002146CCF800000298FBF72AFC094B2146D4
:1095000018605846FBF724FC049A21461060284650
:10951000FBF71EFC039B186007B0BDE8F08F00BF8F
:1095200080010020F8550020FC5500200056002046
:1095300078010020000000002DE9F04F624B1E680A
:10954000624B1F68624B87B0D3F80080614B039079
:109550000491304639461D680592FBF7F9FB294610
:1095600004464046FBF7F4FB01462046FBF7E6FACB
:109570000146FBF7E5FA314604464046FBF7E8FBB7
:10958000394681462846FBF7E3FB01464846FBF790
:10959000D7FA0146FBF7D4FA414601904046FBF763
:1095A000D7FB314682463046FBF7D2FB2946009076
:1095B0002846FBF7CDFB394683463846FBF7C8FB08
:1095C000009981465046FBF7B9FA5946FBF7B6FABF
:1095D0004946FBF7B5FA4FF07E5102902046FBF763
:1095E00073FD30B920463C49FBF750FD18B13A4CA9
:1095F00001E04FF07E5439464046FBF7A9FB29466F
:1096000007463046FBF7A4FB01463846FBF798FABD
:109610000146FBF795FAFAF727FF06460F46504634
:109620000099FBF78DFA5946FBF788FA4946FBF794
:1096300085FAFAF719FF02460B463046394607F01D
:1096400011FC0022254BFAF763FF1DA3D3E9002389
:10965000FBF788F8FBF71EFA059B18602046FAF71F
:1096600003FF07F0ABFB00221C4BFAF751FF14A3DA
:10967000D3E90023FBF776F8FBF70CFA049B18609C
:109680000198FAF7F1FE044602980D46FAF7ECFE4F
:1096900002460B462046294607F0E4FB00220F4B0A
:1096A000FAF736FF06A3D3E90023FBF75BF8FBF7D5
:1096B000F1F9039B186007B0BDE8F08FAFF30080AD
:1096C000182D4454FB210940F85500200056002075
:1096D00078010020FC550020000080BF008066401B
:1096E0002DE9F84F324B1E68324B1C68324B1F6815
:1096F000324B80468A46304621461D689146FBF72C
:1097000027FB294683463846FBF722FB014658468D
:10971000FBF714FA0146FBF713FA01464046FBF744
:1097200017FB314680463846FBF712FB214683463D
:109730002846FBF70DFB01465846FBF701FA0146A8
:10974000FBF7FEF901465046FBF702FB0146404697
:10975000FBF7F6F9394680463846FBF7F9FA314609
:1097600007463046FBF7F4FA01463846FBF7E6F9C0
:10977000294606462846FBF7EBFA01463046FBF73A
:10978000DDF9214605462046FBF7E2FA0146284668
:10979000FBF7D6F901464846FBF7DAFA01464046A0
:1097A000FBF7CEF94FF07E51FBF7C8F9BDE8F88F13
:1097B000F85500200056002078010020FC550020BC
:1097C00038B5044620F000400D46FBF75FFCA0B919
:1097D00020460021FBF778FC20B120462946FBF704
:1097E000ADF908E020460021FBF750FC30B12046DF
:1097F0002946FBF7A5F9044600E00024204638BDC1
:109800002DE9F0414E10851B5210AC181C444FF648
:10981000FF7724EAE474BC421B49DFF87880A5EBAB
:109820000205A8BF3C460644ED1A0C6025EAE57522
:10983000B11ABD42D4BFC8F80050C8F80070324415
:10984000124D134E194421EAE171D31A23EAE3734E
:10985000B942D4BF29602F600020A1B2BB42D4BF5F
:109860003360376004F0EEF9B8F80010012004F01E
:10987000E9F92988022004F0E5F931880320BDE8E0
:10988000F04104F0DFB900BFEC600020D860002098
:10989000E4600020E06000202DE9F04F00208DB052
:1098A0000321FCF74DFCFEF727FDFCF7FBFA002631
:1098B0000B90B0467C4C7D4D0BA80221FCF7DEFBE3
:1098C000204629467A4A05F0CBFF05F0C1FF002863
:1098D000F0D0DFF844A2DFF84492764851464A4679
:1098E000FFF7D4F974487549754AFFF71DFAB8F1C6
:1098F000000F68D06B680093AB68DFF824B2019367
:10990000CDF808B02B6820686168A268DFF814827F
:109910006C4FFFF7A5FB6C4B0993184641463A463E
:10992000FFF70AFEAA6869682868FFF7D9FE674949
:10993000089008602868AB68D5F804C00693014613
:10994000CDF81CC0FBF704FADDF81CC005466146E3
:109950006046FBF7FDF901462846FBF7F1F805469E
:1099600006980146FBF7F4F901462846FBF7E8F8AC
:10997000089A5749574D08601046574A1168FFF733
:109980001FFF5946FBF7E4F901462868FBF7D8F8B2
:10999000DAF8002028600092D9F80020099B02F133
:1099A000004201924D4A02924D4A03924D4A04925E
:1099B0001868404BD8F800103A681B68FFF7C4FAE3
:1099C0004FF0000801E04FF0010805F091FFDFF8CB
:1099D0005891002800F07F810136042E40F27B81EF
:1099E000414D4249424A4846FFF762F92A464149F9
:1099F000414804F03FFD414BD5F800A01E68404DA2
:109A000030462968FBF7A4F9314607464FF07E50EF
:109A1000FBF794F801465046FBF79AF901463846A1
:109A2000FBF78EF8374B384FD3F800B03968286011
:109A300006465846FBF78CF9594606904FF07E5083
:109A4000FBF77CF801465046FBF782F9069B01467E
:109A50001846FBF775F8014638603046FBF76EF89C
:109A60002A4B1968FFF7ACFE294B1860194B1F6889
:109A7000284BD3F800A00AF1004683463946304609
:109A8000FBF722FB08B9394600E031465046FBF7A8
:109A9000FDFA00284BD130463946FBF715FB00286C
:109AA00044D1BA4643E000BF985600201856002023
:109AB00024560020D4560020D4600020F2600020FC
:109AC000EA600020305600200C560020A4560020EA
:109AD000A856002094560020BC010020C456002047
:109AE00040560020BC56002090560020D056002042
